{"abi":[{"type":"function","name":"priceConversion","inputs":[],"outputs":[{"name":"","type":"uint256","internalType":"uint256"}],"stateMutability":"view"},{"type":"function","name":"priceConversion","inputs":[{"name":"amount","type":"uint256","internalType":"uint256"}],"outputs":[{"name":"","type":"uint256","internalType":"uint256"}],"stateMutability":"view"}],"bytecode":{"object":"0x61048561004d600b8282823980515f1a6073146041577f4e487b71000000000000000000000000000000000000000000000000000000005f525f60045260245ffd5b305f52607381538281f3fe730000000000000000000000000000000000000000301460806040526004361061003f575f3560e01c806365331bbb14610043578063a9cc199514610061575b5f5ffd5b61004b610091565b60405161005891906101ee565b60405180910390f35b61007b60048036038101906100769190610235565b610139565b60405161008891906101ee565b60405180910390f35b5f5f73694aa1769357215de4fac081bf1f309adc32530690505f8173ffffffffffffffffffffffffffffffffffffffff1663feaf968c6040518163ffffffff1660e01b815260040160a060405180830381865afa1580156100f4573d5f5f3e3d5ffd5b505050506040513d601f19601f8201168201806040525081019061011891906102e6565b50505091505080674563918244f4000061013291906103b7565b9250505090565b5f5f73694aa1769357215de4fac081bf1f309adc32530673ffffffffffffffffffffffffffffffffffffffff1663feaf968c6040518163ffffffff1660e01b815260040160a060405180830381865afa158015610198573d5f5f3e3d5ffd5b505050506040513d601f19601f820116820180604052508101906101bc91906102e6565b50505091505080836101ce919061041f565b915050919050565b5f819050919050565b6101e8816101d6565b82525050565b5f6020820190506102015f8301846101df565b92915050565b5f5ffd5b610214816101d6565b811461021e575f5ffd5b50565b5f8135905061022f8161020b565b92915050565b5f6020828403121561024a57610249610207565b5b5f61025784828501610221565b91505092915050565b5f69ffffffffffffffffffff82169050919050565b61027e81610260565b8114610288575f5ffd5b50565b5f8151905061029981610275565b92915050565b5f819050919050565b6102b18161029f565b81146102bb575f5ffd5b50565b5f815190506102cc816102a8565b92915050565b5f815190506102e08161020b565b92915050565b5f5f5f5f5f60a086880312156102ff576102fe610207565b5b5f61030c8882890161028b565b955050602061031d888289016102be565b945050604061032e888289016102d2565b935050606061033f888289016102d2565b92505060806103508882890161028b565b9150509295509295909350565b7f4e487b71000000000000000000000000000000000000000000000000000000005f52601260045260245ffd5b7f4e487b71000000000000000000000000000000000000000000000000000000005f52601160045260245ffd5b5f6103c18261029f565b91506103cc8361029f565b9250826103dc576103db61035d565b5b60015f0383147f8000000000000000000000000000000000000000000000000000000000000000831416156104145761041361038a565b5b828205905092915050565b5f610429826101d6565b9150610434836101d6565b9250826104445761044361035d565b5b82820490509291505056fea2646970667358221220649a1c52c13eb304e19f18e0bba8681ea234b3fd9707fc3a0ff3cbc7e125ff4964736f6c634300081e0033","linkReferences":{}},"methodIdentifiers":{"priceConversion()":"65331bbb","priceConversion(uint256)":"a9cc1995"},"id":19}