{"abi":[{"type":"constructor","inputs":[{"name":"_priceFeed","type":"address","internalType":"address"}],"stateMutability":"nonpayable"},{"type":"function","name":"MINIMUM_FUND_IN_USD","inputs":[],"outputs":[{"name":"","type":"uint256","internalType":"uint256"}],"stateMutability":"view"},{"type":"function","name":"fundInfo","inputs":[{"name":"","type":"address","internalType":"address"}],"outputs":[{"name":"name","type":"string","internalType":"string"},{"name":"amount","type":"uint256","internalType":"uint256"}],"stateMutability":"view"},{"type":"function","name":"fundMe","inputs":[{"name":"_name","type":"string","internalType":"string"}],"outputs":[],"stateMutability":"payable"},{"type":"function","name":"getConversion","inputs":[],"outputs":[{"name":"","type":"uint256","internalType":"uint256"}],"stateMutability":"view"},{"type":"function","name":"getOwner","inputs":[],"outputs":[{"name":"","type":"address","internalType":"address"}],"stateMutability":"view"},{"type":"function","name":"getPriceFeed","inputs":[],"outputs":[{"name":"","type":"address","internalType":"address"}],"stateMutability":"view"},{"type":"function","name":"withdrawal","inputs":[],"outputs":[],"stateMutability":"nonpayable"}],"bytecode":{"object":"0x60a060405234801561000f575f5ffd5b506040516111a73803806111a783398181016040528101906100319190610108565b3373ffffffffffffffffffffffffffffffffffffffff1660808173ffffffffffffffffffffffffffffffffffffffff1681525050805f5f6101000a81548173ffffffffffffffffffffffffffffffffffffffff021916908373ffffffffffffffffffffffffffffffffffffffff16021790555050610133565b5f5ffd5b5f73ffffffffffffffffffffffffffffffffffffffff82169050919050565b5f6100d7826100ae565b9050919050565b6100e7816100cd565b81146100f1575f5ffd5b50565b5f81519050610102816100de565b92915050565b5f6020828403121561011d5761011c6100aa565b5b5f61012a848285016100f4565b91505092915050565b60805161104e6101595f395f81816102b30152818161043101526105a7015261104e5ff3fe60806040526004361061006f575f3560e01c8063900a6d3c1161004d578063900a6d3c146100f65780639e87a5cd14610120578063d4e932921461014a578063f18a5222146101605761006f565b806329899dd014610073578063893d20e81461008f5780638f58ab7a146100b9575b5f5ffd5b61008d600480360381019061008891906108c2565b61018a565b005b34801561009a575f5ffd5b506100a36102b0565b6040516100b09190610948565b60405180910390f35b3480156100c4575f5ffd5b506100df60048036038101906100da919061098b565b6102d7565b6040516100ed929190610a2e565b60405180910390f35b348015610101575f5ffd5b5061010a61037d565b6040516101179190610a5c565b60405180910390f35b34801561012b575f5ffd5b50610134610408565b6040516101419190610948565b60405180910390f35b348015610155575f5ffd5b5061015e61042f565b005b34801561016b575f5ffd5b506101746106ce565b6040516101819190610a5c565b60405180910390f35b67016345785d8a00003410156101d5576040517f08c379a00000000000000000000000000000000000000000000000000000000081526004016101cc90610ae5565b60405180910390fd5b5f60405180604001604052808381526020013481525090508060015f3373ffffffffffffffffffffffffffffffffffffffff1673ffffffffffffffffffffffffffffffffffffffff1681526020019081526020015f205f820151815f01908161023e9190610d00565b5060208201518160010155905050600233908060018154018082558091505060019003905f5260205f20015f9091909190916101000a81548173ffffffffffffffffffffffffffffffffffffffff021916908373ffffffffffffffffffffffffffffffffffffffff1602179055505050565b5f7f0000000000000000000000000000000000000000000000000000000000000000905090565b6001602052805f5260405f205f91509050805f0180546102f690610b30565b80601f016020809104026020016040519081016040528092919081815260200182805461032290610b30565b801561036d5780601f106103445761010080835404028352916020019161036d565b820191905f5260205f20905b81548152906001019060200180831161035057829003601f168201915b5050505050908060010154905082565b5f5f678ac7230489e8000090508073__$22ef75b31e2d998cd01172b890884772a9$__63a9cc199590916040518263ffffffff1660e01b81526004016103c39190610dde565b602060405180830381865af41580156103de573d5f5f3e3d5ffd5b505050506040513d601f19601f820116820180604052508101906104029190610e21565b91505090565b5f5f5f9054906101000a900473ffffffffffffffffffffffffffffffffffffffff16905090565b7f000000000000000000000000000000000000000000000000000000000000000073ffffffffffffffffffffffffffffffffffffffff163373ffffffffffffffffffffffffffffffffffffffff16146104bd576040517f08c379a00000000000000000000000000000000000000000000000000000000081526004016104b490610ebc565b60405180910390fd5b5f47116104ff576040517f08c379a00000000000000000000000000000000000000000000000000000000081526004016104f690610f24565b60405180910390fd5b5f5f90505b6002805490508110156105a3575f6002828154811061052657610525610f42565b5b905f5260205f20015f9054906101000a900473ffffffffffffffffffffffffffffffffffffffff1690505f60015f8373ffffffffffffffffffffffffffffffffffffffff1673ffffffffffffffffffffffffffffffffffffffff1681526020019081526020015f2060010181905550508080600101915050610504565b505f7f000000000000000000000000000000000000000000000000000000000000000073ffffffffffffffffffffffffffffffffffffffff16476040516105e990610f9c565b5f6040518083038185875af1925050503d805f8114610623576040519150601f19603f3d011682016040523d82523d5f602084013e610628565b606091505b505090508061066c576040517f08c379a000000000000000000000000000000000000000000000000000000000815260040161066390610ffa565b60405180910390fd5b5f67ffffffffffffffff8111156106865761068561079e565b5b6040519080825280602002602001820160405280156106b45781602001602082028036833780820191505090505b50600290805190602001906106ca9291906106d3565b5050565b600581565b828054828255905f5260205f20908101928215610749579160200282015b82811115610748578251825f6101000a81548173ffffffffffffffffffffffffffffffffffffffff021916908373ffffffffffffffffffffffffffffffffffffffff160217905550916020019190600101906106f1565b5b509050610756919061075a565b5090565b5b80821115610771575f815f90555060010161075b565b5090565b5f604051905090565b5f5ffd5b5f5ffd5b5f5ffd5b5f5ffd5b5f601f19601f8301169050919050565b7f4e487b71000000000000000000000000000000000000000000000000000000005f52604160045260245ffd5b6107d48261078e565b810181811067ffffffffffffffff821117156107f3576107f261079e565b5b80604052505050565b5f610805610775565b905061081182826107cb565b919050565b5f67ffffffffffffffff8211156108305761082f61079e565b5b6108398261078e565b9050602081019050919050565b828183375f83830152505050565b5f61086661086184610816565b6107fc565b9050828152602081018484840111156108825761088161078a565b5b61088d848285610846565b509392505050565b5f82601f8301126108a9576108a8610786565b5b81356108b9848260208601610854565b91505092915050565b5f602082840312156108d7576108d661077e565b5b5f82013567ffffffffffffffff8111156108f4576108f3610782565b5b61090084828501610895565b91505092915050565b5f73ffffffffffffffffffffffffffffffffffffffff82169050919050565b5f61093282610909565b9050919050565b61094281610928565b82525050565b5f60208201905061095b5f830184610939565b92915050565b61096a81610928565b8114610974575f5ffd5b50565b5f8135905061098581610961565b92915050565b5f602082840312156109a05761099f61077e565b5b5f6109ad84828501610977565b91505092915050565b5f81519050919050565b5f82825260208201905092915050565b8281835e5f83830152505050565b5f6109e8826109b6565b6109f281856109c0565b9350610a028185602086016109d0565b610a0b8161078e565b840191505092915050565b5f819050919050565b610a2881610a16565b82525050565b5f6040820190508181035f830152610a4681856109de565b9050610a556020830184610a1f565b9392505050565b5f602082019050610a6f5f830184610a1f565b92915050565b7f6174206c6561737420302e31206574686572206e6565647320746f20626520665f8201527f756e646564000000000000000000000000000000000000000000000000000000602082015250565b5f610acf6025836109c0565b9150610ada82610a75565b604082019050919050565b5f6020820190508181035f830152610afc81610ac3565b9050919050565b7f4e487b71000000000000000000000000000000000000000000000000000000005f52602260045260245ffd5b5f6002820490506001821680610b4757607f821691505b602082108103610b5a57610b59610b03565b5b50919050565b5f819050815f5260205f209050919050565b5f6020601f8301049050919050565b5f82821b905092915050565b5f60088302610bbc7fffffffffffffffffffffffffffffffffffffffffffffffffffffffffffffffff82610b81565b610bc68683610b81565b95508019841693508086168417925050509392505050565b5f819050919050565b5f610c01610bfc610bf784610a16565b610bde565b610a16565b9050919050565b5f819050919050565b610c1a83610be7565b610c2e610c2682610c08565b848454610b8d565b825550505050565b5f5f905090565b610c45610c36565b610c50818484610c11565b505050565b5b81811015610c7357610c685f82610c3d565b600181019050610c56565b5050565b601f821115610cb857610c8981610b60565b610c9284610b72565b81016020851015610ca1578190505b610cb5610cad85610b72565b830182610c55565b50505b505050565b5f82821c905092915050565b5f610cd85f1984600802610cbd565b1980831691505092915050565b5f610cf08383610cc9565b9150826002028217905092915050565b610d09826109b6565b67ffffffffffffffff811115610d2257610d2161079e565b5b610d2c8254610b30565b610d37828285610c77565b5f60209050601f831160018114610d68575f8415610d56578287015190505b610d608582610ce5565b865550610dc7565b601f198416610d7686610b60565b5f5b82811015610d9d57848901518255600182019150602085019450602081019050610d78565b86831015610dba5784890151610db6601f891682610cc9565b8355505b6001600288020188555050505b505050505050565b610dd881610a16565b82525050565b5f602082019050610df15f830184610dcf565b92915050565b610e0081610a16565b8114610e0a575f5ffd5b50565b5f81519050610e1b81610df7565b92915050565b5f60208284031215610e3657610e3561077e565b5b5f610e4384828501610e0d565b91505092915050565b7f796f7520617265206e6f7420746865206f776e6572206f662074686520636f6e5f8201527f7472616374000000000000000000000000000000000000000000000000000000602082015250565b5f610ea66025836109c0565b9150610eb182610e4c565b604082019050919050565b5f6020820190508181035f830152610ed381610e9a565b9050919050565b7f6e6f742073756666696369656e742062616c616e6365000000000000000000005f82015250565b5f610f0e6016836109c0565b9150610f1982610eda565b602082019050919050565b5f6020820190508181035f830152610f3b81610f02565b9050919050565b7f4e487b71000000000000000000000000000000000000000000000000000000005f52603260045260245ffd5b5f81905092915050565b50565b5f610f875f83610f6f565b9150610f9282610f79565b5f82019050919050565b5f610fa682610f7c565b9150819050919050565b7f746865207472616e7366657220746f20746865206f776e6572206661696c65645f82015250565b5f610fe46020836109c0565b9150610fef82610fb0565b602082019050919050565b5f6020820190508181035f83015261101181610fd8565b905091905056fea264697066735822122049af2b4a8e7c02c5300720902311335ce6451498ba695723a331044a9a51baf164736f6c634300081e0033","linkReferences":{"src/Math.sol":{"Math":[{"start":1254,"length":20}]}}},"methodIdentifiers":{"MINIMUM_FUND_IN_USD()":"f18a5222","fundInfo(address)":"8f58ab7a","fundMe(string)":"29899dd0","getConversion()":"900a6d3c","getOwner()":"893d20e8","getPriceFeed()":"9e87a5cd","withdrawal()":"d4e93292"},"id":18}