{"abi":[{"type":"constructor","inputs":[],"stateMutability":"nonpayable"},{"type":"function","name":"MINIMUM_FUND_IN_USD","inputs":[],"outputs":[{"name":"","type":"uint256","internalType":"uint256"}],"stateMutability":"view"},{"type":"function","name":"fundInfo","inputs":[{"name":"","type":"address","internalType":"address"}],"outputs":[{"name":"name","type":"string","internalType":"string"},{"name":"amount","type":"uint256","internalType":"uint256"}],"stateMutability":"view"},{"type":"function","name":"fundMe","inputs":[{"name":"_name","type":"string","internalType":"string"}],"outputs":[],"stateMutability":"payable"},{"type":"function","name":"getConversion","inputs":[],"outputs":[{"name":"","type":"uint256","internalType":"uint256"}],"stateMutability":"view"},{"type":"function","name":"getOwner","inputs":[],"outputs":[{"name":"","type":"address","internalType":"address"}],"stateMutability":"view"},{"type":"function","name":"withdrawal","inputs":[],"outputs":[],"stateMutability":"nonpayable"}],"bytecode":{"object":"0x60a0604052348015600e575f5ffd5b503373ffffffffffffffffffffffffffffffffffffffff1660808173ffffffffffffffffffffffffffffffffffffffff1681525050608051610fdf6100695f395f818161026d015281816103c301526105380152610fdf5ff3fe608060405260043610610054575f3560e01c806329899dd014610058578063893d20e8146100745780638f58ab7a1461009e578063900a6d3c146100db578063d4e9329214610105578063f18a52221461011b575b5f5ffd5b610072600480360381019061006d9190610853565b610145565b005b34801561007f575f5ffd5b5061008861026a565b60405161009591906108d9565b60405180910390f35b3480156100a9575f5ffd5b506100c460048036038101906100bf919061091c565b610291565b6040516100d29291906109bf565b60405180910390f35b3480156100e6575f5ffd5b506100ef610336565b6040516100fc91906109ed565b60405180910390f35b348015610110575f5ffd5b506101196103c1565b005b348015610126575f5ffd5b5061012f61065f565b60405161013c91906109ed565b60405180910390f35b67016345785d8a0000341015610190576040517f08c379a000000000000000000000000000000000000000000000000000000000815260040161018790610a76565b60405180910390fd5b5f6040518060400160405280838152602001348152509050805f5f3373ffffffffffffffffffffffffffffffffffffffff1673ffffffffffffffffffffffffffffffffffffffff1681526020019081526020015f205f820151815f0190816101f89190610c91565b5060208201518160010155905050600133908060018154018082558091505060019003905f5260205f20015f9091909190916101000a81548173ffffffffffffffffffffffffffffffffffffffff021916908373ffffffffffffffffffffffffffffffffffffffff1602179055505050565b5f7f0000000000000000000000000000000000000000000000000000000000000000905090565b5f602052805f5260405f205f91509050805f0180546102af90610ac1565b80601f01602080910402602001604051908101604052809291908181526020018280546102db90610ac1565b80156103265780601f106102fd57610100808354040283529160200191610326565b820191905f5260205f20905b81548152906001019060200180831161030957829003601f168201915b5050505050908060010154905082565b5f5f678ac7230489e8000090508073__$22ef75b31e2d998cd01172b890884772a9$__63a9cc199590916040518263ffffffff1660e01b815260040161037c9190610d6f565b602060405180830381865af4158015610397573d5f5f3e3d5ffd5b505050506040513d601f19601f820116820180604052508101906103bb9190610db2565b91505090565b7f000000000000000000000000000000000000000000000000000000000000000073ffffffffffffffffffffffffffffffffffffffff163373ffffffffffffffffffffffffffffffffffffffff161461044f576040517f08c379a000000000000000000000000000000000000000000000000000000000815260040161044690610e4d565b60405180910390fd5b5f4711610491576040517f08c379a000000000000000000000000000000000000000000000000000000000815260040161048890610eb5565b60405180910390fd5b5f5f90505b600180549050811015610534575f600182815481106104b8576104b7610ed3565b5b905f5260205f20015f9054906101000a900473ffffffffffffffffffffffffffffffffffffffff1690505f5f5f8373ffffffffffffffffffffffffffffffffffffffff1673ffffffffffffffffffffffffffffffffffffffff1681526020019081526020015f2060010181905550508080600101915050610496565b505f7f000000000000000000000000000000000000000000000000000000000000000073ffffffffffffffffffffffffffffffffffffffff164760405161057a90610f2d565b5f6040518083038185875af1925050503d805f81146105b4576040519150601f19603f3d011682016040523d82523d5f602084013e6105b9565b606091505b50509050806105fd576040517f08c379a00000000000000000000000000000000000000000000000000000000081526004016105f490610f8b565b60405180910390fd5b5f67ffffffffffffffff8111156106175761061661072f565b5b6040519080825280602002602001820160405280156106455781602001602082028036833780820191505090505b506001908051906020019061065b929190610664565b5050565b600581565b828054828255905f5260205f209081019282156106da579160200282015b828111156106d9578251825f6101000a81548173ffffffffffffffffffffffffffffffffffffffff021916908373ffffffffffffffffffffffffffffffffffffffff16021790555091602001919060010190610682565b5b5090506106e791906106eb565b5090565b5b80821115610702575f815f9055506001016106ec565b5090565b5f604051905090565b5f5ffd5b5f5ffd5b5f5ffd5b5f5ffd5b5f601f19601f8301169050919050565b7f4e487b71000000000000000000000000000000000000000000000000000000005f52604160045260245ffd5b6107658261071f565b810181811067ffffffffffffffff821117156107845761078361072f565b5b80604052505050565b5f610796610706565b90506107a2828261075c565b919050565b5f67ffffffffffffffff8211156107c1576107c061072f565b5b6107ca8261071f565b9050602081019050919050565b828183375f83830152505050565b5f6107f76107f2846107a7565b61078d565b9050828152602081018484840111156108135761081261071b565b5b61081e8482856107d7565b509392505050565b5f82601f83011261083a57610839610717565b5b813561084a8482602086016107e5565b91505092915050565b5f602082840312156108685761086761070f565b5b5f82013567ffffffffffffffff81111561088557610884610713565b5b61089184828501610826565b91505092915050565b5f73ffffffffffffffffffffffffffffffffffffffff82169050919050565b5f6108c38261089a565b9050919050565b6108d3816108b9565b82525050565b5f6020820190506108ec5f8301846108ca565b92915050565b6108fb816108b9565b8114610905575f5ffd5b50565b5f81359050610916816108f2565b92915050565b5f602082840312156109315761093061070f565b5b5f61093e84828501610908565b91505092915050565b5f81519050919050565b5f82825260208201905092915050565b8281835e5f83830152505050565b5f61097982610947565b6109838185610951565b9350610993818560208601610961565b61099c8161071f565b840191505092915050565b5f819050919050565b6109b9816109a7565b82525050565b5f6040820190508181035f8301526109d7818561096f565b90506109e660208301846109b0565b9392505050565b5f602082019050610a005f8301846109b0565b92915050565b7f6174206c6561737420302e31206574686572206e6565647320746f20626520665f8201527f756e646564000000000000000000000000000000000000000000000000000000602082015250565b5f610a60602583610951565b9150610a6b82610a06565b604082019050919050565b5f6020820190508181035f830152610a8d81610a54565b9050919050565b7f4e487b71000000000000000000000000000000000000000000000000000000005f52602260045260245ffd5b5f6002820490506001821680610ad857607f821691505b602082108103610aeb57610aea610a94565b5b50919050565b5f819050815f5260205f209050919050565b5f6020601f8301049050919050565b5f82821b905092915050565b5f60088302610b4d7fffffffffffffffffffffffffffffffffffffffffffffffffffffffffffffffff82610b12565b610b578683610b12565b95508019841693508086168417925050509392505050565b5f819050919050565b5f610b92610b8d610b88846109a7565b610b6f565b6109a7565b9050919050565b5f819050919050565b610bab83610b78565b610bbf610bb782610b99565b848454610b1e565b825550505050565b5f5f905090565b610bd6610bc7565b610be1818484610ba2565b505050565b5b81811015610c0457610bf95f82610bce565b600181019050610be7565b5050565b601f821115610c4957610c1a81610af1565b610c2384610b03565b81016020851015610c32578190505b610c46610c3e85610b03565b830182610be6565b50505b505050565b5f82821c905092915050565b5f610c695f1984600802610c4e565b1980831691505092915050565b5f610c818383610c5a565b9150826002028217905092915050565b610c9a82610947565b67ffffffffffffffff811115610cb357610cb261072f565b5b610cbd8254610ac1565b610cc8828285610c08565b5f60209050601f831160018114610cf9575f8415610ce7578287015190505b610cf18582610c76565b865550610d58565b601f198416610d0786610af1565b5f5b82811015610d2e57848901518255600182019150602085019450602081019050610d09565b86831015610d4b5784890151610d47601f891682610c5a565b8355505b6001600288020188555050505b505050505050565b610d69816109a7565b82525050565b5f602082019050610d825f830184610d60565b92915050565b610d91816109a7565b8114610d9b575f5ffd5b50565b5f81519050610dac81610d88565b92915050565b5f60208284031215610dc757610dc661070f565b5b5f610dd484828501610d9e565b91505092915050565b7f796f7520617265206e6f7420746865206f776e6572206f662074686520636f6e5f8201527f7472616374000000000000000000000000000000000000000000000000000000602082015250565b5f610e37602583610951565b9150610e4282610ddd565b604082019050919050565b5f6020820190508181035f830152610e6481610e2b565b9050919050565b7f6e6f742073756666696369656e742062616c616e6365000000000000000000005f82015250565b5f610e9f601683610951565b9150610eaa82610e6b565b602082019050919050565b5f6020820190508181035f830152610ecc81610e93565b9050919050565b7f4e487b71000000000000000000000000000000000000000000000000000000005f52603260045260245ffd5b5f81905092915050565b50565b5f610f185f83610f00565b9150610f2382610f0a565b5f82019050919050565b5f610f3782610f0d565b9150819050919050565b7f746865207472616e7366657220746f20746865206f776e6572206661696c65645f82015250565b5f610f75602083610951565b9150610f8082610f41565b602082019050919050565b5f6020820190508181035f830152610fa281610f69565b905091905056fea2646970667358221220594f52619c7bf6f863536543daf0f79256ad956fcefa4ef09e949d1d496e8fca64736f6c634300081e0033","linkReferences":{"src/Math.sol":{"Math":[{"start":943,"length":20}]}}},"methodIdentifiers":{"MINIMUM_FUND_IN_USD()":"f18a5222","fundInfo(address)":"8f58ab7a","fundMe(string)":"29899dd0","getConversion()":"900a6d3c","getOwner()":"893d20e8","withdrawal()":"d4e93292"},"id":17}